:100000000C9446000C945D000C945D000C945D0013
:100010000C945D000C945D000C945D000C945D00EC
:100020000C945D000C945D000C945D000C945D00DC
:100030000C945D000C945D000C945D000C945D00CC
:100040000C945D000C945D000C945D000C945D00BC
:100050000C945D000C945D000C945D000C945D00AC
:100060000C945D000C945D000C945D000C945D009C
:100070000C945D000C945D000C945D000C945D008C
:100080000C945D000C945D000C945D0011241FBE67
:10009000CFEFD0E4DEBFCDBF11E0A0E0B1E0E2E100
:1000A000F3E000E00BBF02C007900D92AE30B10745
:1000B000D9F70E9488000C9487010C940000CF931C
:1000C000DF9300D01F92CDB7DEB789837B836A832D
:1000D00089818A3031F48A819B81BC018DE00E9444
:1000E0005F0080EC90E0FC018081882F90E08072BE
:1000F00099270097B1F386EC90E02981FC012083D9
:1001000080E090E00F900F900F90DF91CF910895D5
:10011000CF93DF9300D000D0CDB7DEB781E290E07F
:10012000FC01108282E290E02FEFFC01208387E245
:1001300090E02FEFFC01208388E290E0FC01108228
:1001400019821A821B821C8280E290E0FC0180816D
:100150008F70898380E290E0FC018081882F90E09D
:10016000807199279595879595958795959587950C
:100170008A8380E290E0FC018081882F90E0807289
:1001800099279595879595958795959587959595B3
:1001900087958B8380E290E0FC018081882F90E03E
:1001A00080749927959587959595879595958795C9
:1001B00095958795959587958C8389818330D8F41B
:1001C00088E290E020E6FC0120838C81882309F0FE
:1001D0009DC08B81882309F499C08A81882309F402
:1001E00095C088E290E028E230E0F90120812068A3
:1001F000FC012083A9CF89818530D8F488E290E082
:1002000020E7FC0120838C81882309F07FC08B814B
:10021000882309F47BC08A81882309F477C088E2A7
:1002200090E028E230E0F90120812068FC01208381
:100230008BCF89818730D8F488E290E028E3FC01F5
:1002400020838C81882309F061C08B81882309F485
:100250005DC08A81882309F459C088E290E028E2D1
:1002600030E0F90120812068FC0120836DCF898175
:100270008A30D0F488E290E02CE3FC0120838C816A
:10028000882309F043C08B81882309F43FC08A8109
:100290008823E1F188E290E028E230E0F901208152
:1002A0002068FC01208350CF89818D30C0F488E222
:1002B00090E02EE3FC0120838C81882339F58B812B
:1002C000882321F18A81882309F188E290E028E2DD
:1002D00030E0F90120812068FC01208335CF88E2DD
:1002E00090E02FE3FC0120838C81882379F48B81BB
:1002F000882361F08A81882349F088E290E028E22F
:1003000030E0F90120812068FC0120831DCFF894A2
:02031000FFCF1D
:0E03120000000002000000005F00000000007C
:00000001FF
