:100000000C9446000C945D000C945D000C945D0013
:100010000C945D000C945D000C945D000C945D00EC
:100020000C945D000C945D000C945D000C945D00DC
:100030000C945D000C945D000C945D000C945D00CC
:100040000C945D000C945D000C945D000C945D00BC
:100050000C945D000C945D000C945D000C945D00AC
:100060000C945D000C945D000C945D000C945D009C
:100070000C945D000C945D000C945D000C945D008C
:100080000C945D000C945D000C945D0011241FBE67
:10009000CFEFD0E4DEBFCDBF11E0A0E0B1E0E6E0FD
:1000A000F2E000E00BBF02C007900D92AE30B10746
:1000B000D9F70E9488000C9401010C940000CF93A2
:1000C000DF9300D01F92CDB7DEB789837B836A832D
:1000D00089818A3031F48A819B81BC018DE00E9444
:1000E0005F0080EC90E0FC018081882F90E08072BE
:1000F00099270097B1F386EC90E02981FC012083D9
:1001000080E090E00F900F900F90DF91CF910895D5
:10011000CF93DF9300D000D0CDB7DEB781E290E07F
:10012000FC01108282E290E02FEFFC01208384E248
:1001300090E0FC01108285E290E02FEFFC0120832B
:1001400087E290E02FEFFC01208388E290E0FC0141
:10015000108219821B821C821A8280E290E0FC01CC
:1001600080818B8383E290E0FC0180818C83198203
:1001700087E08A8329C08B81882F90E02A81222FF3
:1001800030E0022E02C0959587950A94E2F78170BF
:100190009927009719F089818F5F89838C81882F37
:1001A00090E02A81222F30E0022E02C0959587959B
:1001B0000A94E2F781709927009719F089818F5F7F
:1001C00089838A8181508A838A818823A1F68B81E1
:1001D000882F90E081709927009719F089818F5FAF
:1001E00089838C81882F90E081709927009719F07E
:1001F00089818F5F898388E290E02981FC012083D7
:06020000ACCFF894FFCF23
:0E02060000000002000000005F000000000089
:00000001FF
